{
  "contractName": "ART",
  "abi": [
    {
      "inputs": [
        {
          "internalType": "string",
          "name": "name",
          "type": "string"
        },
        {
          "internalType": "string",
          "name": "symbol",
          "type": "string"
        }
      ],
      "stateMutability": "nonpayable",
      "type": "constructor"
    },
    {
      "anonymous": false,
      "inputs": [
        {
          "indexed": true,
          "internalType": "address",
          "name": "owner",
          "type": "address"
        },
        {
          "indexed": true,
          "internalType": "address",
          "name": "approved",
          "type": "address"
        },
        {
          "indexed": true,
          "internalType": "uint256",
          "name": "tokenId",
          "type": "uint256"
        }
      ],
      "name": "Approval",
      "type": "event"
    },
    {
      "anonymous": false,
      "inputs": [
        {
          "indexed": true,
          "internalType": "address",
          "name": "owner",
          "type": "address"
        },
        {
          "indexed": true,
          "internalType": "address",
          "name": "operator",
          "type": "address"
        },
        {
          "indexed": false,
          "internalType": "bool",
          "name": "approved",
          "type": "bool"
        }
      ],
      "name": "ApprovalForAll",
      "type": "event"
    },
    {
      "anonymous": false,
      "inputs": [
        {
          "indexed": true,
          "internalType": "address",
          "name": "previousOwner",
          "type": "address"
        },
        {
          "indexed": true,
          "internalType": "address",
          "name": "newOwner",
          "type": "address"
        }
      ],
      "name": "OwnershipTransferred",
      "type": "event"
    },
    {
      "anonymous": false,
      "inputs": [
        {
          "indexed": true,
          "internalType": "uint256",
          "name": "tokenId",
          "type": "uint256"
        },
        {
          "indexed": false,
          "internalType": "uint256",
          "name": "price",
          "type": "uint256"
        }
      ],
      "name": "TokenListed",
      "type": "event"
    },
    {
      "anonymous": false,
      "inputs": [
        {
          "indexed": true,
          "internalType": "uint256",
          "name": "tokenId",
          "type": "uint256"
        },
        {
          "indexed": false,
          "internalType": "uint256",
          "name": "price",
          "type": "uint256"
        },
        {
          "indexed": true,
          "internalType": "address",
          "name": "seller",
          "type": "address"
        },
        {
          "indexed": true,
          "internalType": "address",
          "name": "buyer",
          "type": "address"
        }
      ],
      "name": "TokenSold",
      "type": "event"
    },
    {
      "anonymous": false,
      "inputs": [
        {
          "indexed": true,
          "internalType": "address",
          "name": "from",
          "type": "address"
        },
        {
          "indexed": true,
          "internalType": "address",
          "name": "to",
          "type": "address"
        },
        {
          "indexed": true,
          "internalType": "uint256",
          "name": "tokenId",
          "type": "uint256"
        }
      ],
      "name": "Transfer",
      "type": "event"
    },
    {
      "inputs": [
        {
          "internalType": "address",
          "name": "to",
          "type": "address"
        },
        {
          "internalType": "uint256",
          "name": "tokenId",
          "type": "uint256"
        }
      ],
      "name": "approve",
      "outputs": [],
      "stateMutability": "nonpayable",
      "type": "function"
    },
    {
      "inputs": [],
      "name": "artToken",
      "outputs": [
        {
          "internalType": "contract IERC20",
          "name": "",
          "type": "address"
        }
      ],
      "stateMutability": "view",
      "type": "function",
      "constant": true
    },
    {
      "inputs": [
        {
          "internalType": "address",
          "name": "owner",
          "type": "address"
        }
      ],
      "name": "balanceOf",
      "outputs": [
        {
          "internalType": "uint256",
          "name": "",
          "type": "uint256"
        }
      ],
      "stateMutability": "view",
      "type": "function",
      "constant": true
    },
    {
      "inputs": [
        {
          "internalType": "uint256",
          "name": "tokenId",
          "type": "uint256"
        }
      ],
      "name": "getApproved",
      "outputs": [
        {
          "internalType": "address",
          "name": "",
          "type": "address"
        }
      ],
      "stateMutability": "view",
      "type": "function",
      "constant": true
    },
    {
      "inputs": [
        {
          "internalType": "address",
          "name": "owner",
          "type": "address"
        },
        {
          "internalType": "address",
          "name": "operator",
          "type": "address"
        }
      ],
      "name": "isApprovedForAll",
      "outputs": [
        {
          "internalType": "bool",
          "name": "",
          "type": "bool"
        }
      ],
      "stateMutability": "view",
      "type": "function",
      "constant": true
    },
    {
      "inputs": [],
      "name": "name",
      "outputs": [
        {
          "internalType": "string",
          "name": "",
          "type": "string"
        }
      ],
      "stateMutability": "view",
      "type": "function",
      "constant": true
    },
    {
      "inputs": [],
      "name": "nextTokenId",
      "outputs": [
        {
          "internalType": "uint256",
          "name": "",
          "type": "uint256"
        }
      ],
      "stateMutability": "view",
      "type": "function",
      "constant": true
    },
    {
      "inputs": [],
      "name": "owner",
      "outputs": [
        {
          "internalType": "address",
          "name": "",
          "type": "address"
        }
      ],
      "stateMutability": "view",
      "type": "function",
      "constant": true
    },
    {
      "inputs": [
        {
          "internalType": "uint256",
          "name": "tokenId",
          "type": "uint256"
        }
      ],
      "name": "ownerOf",
      "outputs": [
        {
          "internalType": "address",
          "name": "",
          "type": "address"
        }
      ],
      "stateMutability": "view",
      "type": "function",
      "constant": true
    },
    {
      "inputs": [],
      "name": "renounceOwnership",
      "outputs": [],
      "stateMutability": "nonpayable",
      "type": "function"
    },
    {
      "inputs": [
        {
          "internalType": "address",
          "name": "from",
          "type": "address"
        },
        {
          "internalType": "address",
          "name": "to",
          "type": "address"
        },
        {
          "internalType": "uint256",
          "name": "tokenId",
          "type": "uint256"
        }
      ],
      "name": "safeTransferFrom",
      "outputs": [],
      "stateMutability": "nonpayable",
      "type": "function"
    },
    {
      "inputs": [
        {
          "internalType": "address",
          "name": "from",
          "type": "address"
        },
        {
          "internalType": "address",
          "name": "to",
          "type": "address"
        },
        {
          "internalType": "uint256",
          "name": "tokenId",
          "type": "uint256"
        },
        {
          "internalType": "bytes",
          "name": "data",
          "type": "bytes"
        }
      ],
      "name": "safeTransferFrom",
      "outputs": [],
      "stateMutability": "nonpayable",
      "type": "function"
    },
    {
      "inputs": [
        {
          "internalType": "address",
          "name": "operator",
          "type": "address"
        },
        {
          "internalType": "bool",
          "name": "approved",
          "type": "bool"
        }
      ],
      "name": "setApprovalForAll",
      "outputs": [],
      "stateMutability": "nonpayable",
      "type": "function"
    },
    {
      "inputs": [
        {
          "internalType": "bytes4",
          "name": "interfaceId",
          "type": "bytes4"
        }
      ],
      "name": "supportsInterface",
      "outputs": [
        {
          "internalType": "bool",
          "name": "",
          "type": "bool"
        }
      ],
      "stateMutability": "view",
      "type": "function",
      "constant": true
    },
    {
      "inputs": [],
      "name": "symbol",
      "outputs": [
        {
          "internalType": "string",
          "name": "",
          "type": "string"
        }
      ],
      "stateMutability": "view",
      "type": "function",
      "constant": true
    },
    {
      "inputs": [
        {
          "internalType": "uint256",
          "name": "",
          "type": "uint256"
        }
      ],
      "name": "tokenPrices",
      "outputs": [
        {
          "internalType": "uint256",
          "name": "",
          "type": "uint256"
        }
      ],
      "stateMutability": "view",
      "type": "function",
      "constant": true
    },
    {
      "inputs": [
        {
          "internalType": "uint256",
          "name": "tokenId",
          "type": "uint256"
        }
      ],
      "name": "tokenURI",
      "outputs": [
        {
          "internalType": "string",
          "name": "",
          "type": "string"
        }
      ],
      "stateMutability": "view",
      "type": "function",
      "constant": true
    },
    {
      "inputs": [],
      "name": "transactionFee",
      "outputs": [
        {
          "internalType": "uint256",
          "name": "",
          "type": "uint256"
        }
      ],
      "stateMutability": "view",
      "type": "function",
      "constant": true
    },
    {
      "inputs": [
        {
          "internalType": "address",
          "name": "from",
          "type": "address"
        },
        {
          "internalType": "address",
          "name": "to",
          "type": "address"
        },
        {
          "internalType": "uint256",
          "name": "tokenId",
          "type": "uint256"
        }
      ],
      "name": "transferFrom",
      "outputs": [],
      "stateMutability": "nonpayable",
      "type": "function"
    },
    {
      "inputs": [
        {
          "internalType": "address",
          "name": "newOwner",
          "type": "address"
        }
      ],
      "name": "transferOwnership",
      "outputs": [],
      "stateMutability": "nonpayable",
      "type": "function"
    },
    {
      "inputs": [
        {
          "internalType": "address",
          "name": "to",
          "type": "address"
        },
        {
          "internalType": "string",
          "name": "tokenURI",
          "type": "string"
        }
      ],
      "name": "mint",
      "outputs": [
        {
          "internalType": "uint256",
          "name": "",
          "type": "uint256"
        }
      ],
      "stateMutability": "nonpayable",
      "type": "function"
    },
    {
      "inputs": [
        {
          "internalType": "uint256",
          "name": "tokenId",
          "type": "uint256"
        },
        {
          "internalType": "uint256",
          "name": "price",
          "type": "uint256"
        }
      ],
      "name": "listItemForSale",
      "outputs": [],
      "stateMutability": "nonpayable",
      "type": "function"
    },
    {
      "inputs": [
        {
          "internalType": "uint256",
          "name": "tokenId",
          "type": "uint256"
        }
      ],
      "name": "buyItem",
      "outputs": [],
      "stateMutability": "nonpayable",
      "type": "function"
    },
    {
      "inputs": [
        {
          "internalType": "uint256",
          "name": "_transactionFee",
          "type": "uint256"
        }
      ],
      "name": "setTransactionFee",
      "outputs": [],
      "stateMutability": "nonpayable",
      "type": "function"
    },
    {
      "inputs": [
        {
          "internalType": "uint256",
          "name": "tokenId",
          "type": "uint256"
        },
        {
          "internalType": "uint256",
          "name": "price",
          "type": "uint256"
        }
      ],
      "name": "setItemPrice",
      "outputs": [],
      "stateMutability": "nonpayable",
      "type": "function"
    },
    {
      "inputs": [
        {
          "internalType": "uint256",
          "name": "tokenId",
          "type": "uint256"
        }
      ],
      "name": "getItemPrice",
      "outputs": [
        {
          "internalType": "uint256",
          "name": "",
          "type": "uint256"
        }
      ],
      "stateMutability": "view",
      "type": "function",
      "constant": true
    },
    {
      "inputs": [],
      "name": "getAllItemsForSale",
      "outputs": [
        {
          "internalType": "uint256[]",
          "name": "",
          "type": "uint256[]"
        }
      ],
      "stateMutability": "view",
      "type": "function",
      "constant": true
    }
  ],
  "bytecode": "0x608060405260016008556002600a553480156200001b57600080fd5b506040516200436b3803806200436b833981810160405281019062000041919062000333565b8181816000908162000054919062000603565b50806001908162000066919062000603565b505050620000896200007d620000d260201b60201c565b620000da60201b60201c565b33600960006101000a81548173ffffffffffffffffffffffffffffffffffffffff021916908373ffffffffffffffffffffffffffffffffffffffff1602179055505050620006ea565b600033905090565b6000600760009054906101000a900473ffffffffffffffffffffffffffffffffffffffff16905081600760006101000a81548173ffffffffffffffffffffffffffffffffffffffff021916908373ffffffffffffffffffffffffffffffffffffffff1602179055508173ffffffffffffffffffffffffffffffffffffffff168173ffffffffffffffffffffffffffffffffffffffff167f8be0079c531659141344cd1fd0a4f28419497f9722a3daafe3b4186f6b6457e060405160405180910390a35050565b6000604051905090565b600080fd5b600080fd5b600080fd5b600080fd5b6000601f19601f8301169050919050565b7f4e487b7100000000000000000000000000000000000000000000000000000000600052604160045260246000fd5b6200020982620001be565b810181811067ffffffffffffffff821117156200022b576200022a620001cf565b5b80604052505050565b600062000240620001a0565b90506200024e8282620001fe565b919050565b600067ffffffffffffffff821115620002715762000270620001cf565b5b6200027c82620001be565b9050602081019050919050565b60005b83811015620002a95780820151818401526020810190506200028c565b60008484015250505050565b6000620002cc620002c68462000253565b62000234565b905082815260208101848484011115620002eb57620002ea620001b9565b5b620002f884828562000289565b509392505050565b600082601f830112620003185762000317620001b4565b5b81516200032a848260208601620002b5565b91505092915050565b600080604083850312156200034d576200034c620001aa565b5b600083015167ffffffffffffffff8111156200036e576200036d620001af565b5b6200037c8582860162000300565b925050602083015167ffffffffffffffff811115620003a0576200039f620001af565b5b620003ae8582860162000300565b9150509250929050565b600081519050919050565b7f4e487b7100000000000000000000000000000000000000000000000000000000600052602260045260246000fd5b600060028204905060018216806200040b57607f821691505b602082108103620004215762000420620003c3565b5b50919050565b60008190508160005260206000209050919050565b60006020601f8301049050919050565b600082821b905092915050565b6000600883026200048b7fffffffffffffffffffffffffffffffffffffffffffffffffffffffffffffffff826200044c565b6200049786836200044c565b95508019841693508086168417925050509392505050565b6000819050919050565b6000819050919050565b6000620004e4620004de620004d884620004af565b620004b9565b620004af565b9050919050565b6000819050919050565b6200050083620004c3565b620005186200050f82620004eb565b84845462000459565b825550505050565b600090565b6200052f62000520565b6200053c818484620004f5565b505050565b5b8181101562000564576200055860008262000525565b60018101905062000542565b5050565b601f821115620005b3576200057d8162000427565b62000588846200043c565b8101602085101562000598578190505b620005b0620005a7856200043c565b83018262000541565b50505b505050565b600082821c905092915050565b6000620005d860001984600802620005b8565b1980831691505092915050565b6000620005f38383620005c5565b9150826002028217905092915050565b6200060e82620003b8565b67ffffffffffffffff8111156200062a5762000629620001cf565b5b620006368254620003f2565b6200064382828562000568565b600060209050601f8311600181146200067b576000841562000666578287015190505b620006728582620005e5565b865550620006e2565b601f1984166200068b8662000427565b60005b82811015620006b5578489015182556001820191506020850194506020810190506200068e565b86831015620006d55784890151620006d1601f891682620005c5565b8355505b6001600288020188555050505b505050505050565b613c7180620006fa6000396000f3fe608060405234801561001057600080fd5b50600436106101a95760003560e01c806375794a3c116100f9578063c4100ded11610097578063e5afe3e611610071578063e5afe3e6146104ba578063e7fb74c7146104ea578063e985e9c514610506578063f2fde38b14610536576101a9565b8063c4100ded1461043e578063c87b56dd1461045a578063d0def5211461048a576101a9565b80639ed3edf0116100d35780639ed3edf0146103ca578063a22cb465146103e8578063b88d4fde14610404578063bd4cc0f514610420576101a9565b806375794a3c146103705780638da5cb5b1461038e57806395d89b41146103ac576101a9565b806323b872dd116101665780634c4df870116101405780634c4df870146102d65780636352211e1461030657806370a0823114610336578063715018a614610366576101a9565b806323b872dd146102825780634229c35e1461029e57806342842e0e146102ba576101a9565b806301ffc9a7146101ae57806304f26058146101de57806306fdde03146101fc578063081812fc1461021a578063095ea7b31461024a578063096a8ab714610266575b600080fd5b6101c860048036038101906101c391906124a4565b610552565b6040516101d591906124ec565b60405180910390f35b6101e6610634565b6040516101f391906125cf565b60405180910390f35b6102046107b1565b6040516102119190612681565b60405180910390f35b610234600480360381019061022f91906126cf565b610843565b604051610241919061273d565b60405180910390f35b610264600480360381019061025f9190612784565b610889565b005b610280600480360381019061027b91906126cf565b6109a0565b005b61029c600480360381019061029791906127c4565b6109f6565b005b6102b860048036038101906102b39190612817565b610a56565b005b6102d460048036038101906102cf91906127c4565b610ae8565b005b6102f060048036038101906102eb91906126cf565b610b08565b6040516102fd9190612866565b60405180910390f35b610320600480360381019061031b91906126cf565b610b25565b60405161032d919061273d565b60405180910390f35b610350600480360381019061034b9190612881565b610bab565b60405161035d9190612866565b60405180910390f35b61036e610c62565b005b610378610c76565b6040516103859190612866565b60405180910390f35b610396610c7c565b6040516103a3919061273d565b60405180910390f35b6103b4610ca6565b6040516103c19190612681565b60405180910390f35b6103d2610d38565b6040516103df9190612866565b60405180910390f35b61040260048036038101906103fd91906128da565b610d3e565b005b61041e60048036038101906104199190612a4f565b610d54565b005b610428610db6565b6040516104359190612b31565b60405180910390f35b61045860048036038101906104539190612817565b610ddc565b005b610474600480360381019061046f91906126cf565b610ee9565b6040516104819190612681565b60405180910390f35b6104a4600480360381019061049f9190612bed565b610ffb565b6040516104b19190612866565b60405180910390f35b6104d460048036038101906104cf91906126cf565b611039565b6040516104e19190612866565b60405180910390f35b61050460048036038101906104ff91906126cf565b611051565b005b610520600480360381019061051b9190612c49565b61133a565b60405161052d91906124ec565b60405180910390f35b610550600480360381019061054b9190612881565b6113ce565b005b60007f80ac58cd000000000000000000000000000000000000000000000000000000007bffffffffffffffffffffffffffffffffffffffffffffffffffffffff1916827bffffffffffffffffffffffffffffffffffffffffffffffffffffffff1916148061061d57507f5b5e139f000000000000000000000000000000000000000000000000000000007bffffffffffffffffffffffffffffffffffffffffffffffffffffffff1916827bffffffffffffffffffffffffffffffffffffffffffffffffffffffff1916145b8061062d575061062c82611451565b5b9050919050565b6060600060016008546106479190612cb8565b67ffffffffffffffff8111156106605761065f612924565b5b60405190808252806020026020018201604052801561068e5781602001602082028036833780820191505090505b509050600080600190505b600854811015610701576000600b60008381526020019081526020016000205411156106ee57808383815181106106d3576106d2612cec565b5b60200260200101818152505081806106ea90612d1b565b9250505b80806106f990612d1b565b915050610699565b5060008167ffffffffffffffff81111561071e5761071d612924565b5b60405190808252806020026020018201604052801561074c5781602001602082028036833780820191505090505b50905060005b828110156107a75783818151811061076d5761076c612cec565b5b602002602001015182828151811061078857610787612cec565b5b602002602001018181525050808061079f90612d1b565b915050610752565b5080935050505090565b6060600080546107c090612d92565b80601f01602080910402602001604051908101604052809291908181526020018280546107ec90612d92565b80156108395780601f1061080e57610100808354040283529160200191610839565b820191906000526020600020905b81548152906001019060200180831161081c57829003601f168201915b5050505050905090565b600061084e826114bb565b6004600083815260200190815260200160002060009054906101000a900473ffffffffffffffffffffffffffffffffffffffff169050919050565b600061089482610b25565b90508073ffffffffffffffffffffffffffffffffffffffff168373ffffffffffffffffffffffffffffffffffffffff1603610904576040517f08c379a00000000000000000000000000000000000000000000000000000000081526004016108fb90612e35565b60405180910390fd5b8073ffffffffffffffffffffffffffffffffffffffff16610923611506565b73ffffffffffffffffffffffffffffffffffffffff16148061095257506109518161094c611506565b61133a565b5b610991576040517f08c379a000000000000000000000000000000000000000000000000000000000815260040161098890612ec7565b60405180910390fd5b61099b838361150e565b505050565b6109a86115c7565b600a8111156109ec576040517f08c379a00000000000000000000000000000000000000000000000000000000081526004016109e390612f59565b60405180910390fd5b80600a8190555050565b610a07610a01611506565b82611645565b610a46576040517f08c379a0000000000000000000000000000000000000000000000000000000008152600401610a3d90612feb565b60405180910390fd5b610a518383836116da565b505050565b3373ffffffffffffffffffffffffffffffffffffffff16610a7683610b25565b73ffffffffffffffffffffffffffffffffffffffff1614610acc576040517f08c379a0000000000000000000000000000000000000000000000000000000008152600401610ac39061307d565b60405180910390fd5b80600b6000848152602001908152602001600020819055505050565b610b0383838360405180602001604052806000815250610d54565b505050565b6000600b6000838152602001908152602001600020549050919050565b600080610b31836119d3565b9050600073ffffffffffffffffffffffffffffffffffffffff168173ffffffffffffffffffffffffffffffffffffffff1603610ba2576040517f08c379a0000000000000000000000000000000000000000000000000000000008152600401610b99906130e9565b60405180910390fd5b80915050919050565b60008073ffffffffffffffffffffffffffffffffffffffff168273ffffffffffffffffffffffffffffffffffffffff1603610c1b576040517f08c379a0000000000000000000000000000000000000000000000000000000008152600401610c129061317b565b60405180910390fd5b600360008373ffffffffffffffffffffffffffffffffffffffff1673ffffffffffffffffffffffffffffffffffffffff168152602001908152602001600020549050919050565b610c6a6115c7565b610c746000611a10565b565b60085481565b6000600760009054906101000a900473ffffffffffffffffffffffffffffffffffffffff16905090565b606060018054610cb590612d92565b80601f0160208091040260200160405190810160405280929190818152602001828054610ce190612d92565b8015610d2e5780601f10610d0357610100808354040283529160200191610d2e565b820191906000526020600020905b815481529060010190602001808311610d1157829003601f168201915b5050505050905090565b600a5481565b610d50610d49611506565b8383611ad6565b5050565b610d65610d5f611506565b83611645565b610da4576040517f08c379a0000000000000000000000000000000000000000000000000000000008152600401610d9b90612feb565b60405180910390fd5b610db084848484611c42565b50505050565b600960009054906101000a900473ffffffffffffffffffffffffffffffffffffffff1681565b3373ffffffffffffffffffffffffffffffffffffffff16610dfc83610b25565b73ffffffffffffffffffffffffffffffffffffffff1614610e52576040517f08c379a0000000000000000000000000000000000000000000000000000000008152600401610e499061307d565b60405180910390fd5b60008111610e95576040517f08c379a0000000000000000000000000000000000000000000000000000000008152600401610e8c906131e7565b60405180910390fd5b80600b600084815260200190815260200160002081905550817f1ea85aaf6731daa0c29195039c2a36576fb04e2cd16335504fab8967dfb03f1582604051610edd9190612866565b60405180910390a25050565b6060610ef4826114bb565b6000600660008481526020019081526020016000208054610f1490612d92565b80601f0160208091040260200160405190810160405280929190818152602001828054610f4090612d92565b8015610f8d5780601f10610f6257610100808354040283529160200191610f8d565b820191906000526020600020905b815481529060010190602001808311610f7057829003601f168201915b505050505090506000610f9e611c9e565b90506000815103610fb3578192505050610ff6565b600082511115610fe8578082604051602001610fd0929190613243565b60405160208183030381529060405292505050610ff6565b610ff184611cb5565b925050505b919050565b600080600854905061100d8482611d1d565b6110178184611d3b565b6008600081548092919061102a90612d1b565b91905055508091505092915050565b600b6020528060005260406000206000915090505481565b6000600b6000838152602001908152602001600020549050600081116110ac576040517f08c379a00000000000000000000000000000000000000000000000000000000081526004016110a3906132b3565b60405180910390fd5b60006110b783610b25565b90503373ffffffffffffffffffffffffffffffffffffffff168173ffffffffffffffffffffffffffffffffffffffff1603611127576040517f08c379a000000000000000000000000000000000000000000000000000000000815260040161111e9061331f565b60405180910390fd5b600960009054906101000a900473ffffffffffffffffffffffffffffffffffffffff1673ffffffffffffffffffffffffffffffffffffffff166323b872dd33306064600a5487611177919061333f565b61118191906133b0565b6040518463ffffffff1660e01b815260040161119f939291906133e1565b6020604051808303816000875af11580156111be573d6000803e3d6000fd5b505050506040513d601f19601f820116820180604052508101906111e2919061342d565b50600960009054906101000a900473ffffffffffffffffffffffffffffffffffffffff1673ffffffffffffffffffffffffffffffffffffffff166323b872dd33836064600a5460646112349190612cb8565b8761123f919061333f565b61124991906133b0565b6040518463ffffffff1660e01b8152600401611267939291906133e1565b6020604051808303816000875af1158015611286573d6000803e3d6000fd5b505050506040513d601f19601f820116820180604052508101906112aa919061342d565b506112b68133856116da565b6000600b6000858152602001908152602001600020819055503373ffffffffffffffffffffffffffffffffffffffff168173ffffffffffffffffffffffffffffffffffffffff16847fb45b7a510d22eabde36919bed5551eccad687e7b55e2d2aa3033dc0786a9877b8560405161132d9190612866565b60405180910390a4505050565b6000600560008473ffffffffffffffffffffffffffffffffffffffff1673ffffffffffffffffffffffffffffffffffffffff16815260200190815260200160002060008373ffffffffffffffffffffffffffffffffffffffff1673ffffffffffffffffffffffffffffffffffffffff16815260200190815260200160002060009054906101000a900460ff16905092915050565b6113d66115c7565b600073ffffffffffffffffffffffffffffffffffffffff168173ffffffffffffffffffffffffffffffffffffffff1603611445576040517f08c379a000000000000000000000000000000000000000000000000000000000815260040161143c906134cc565b60405180910390fd5b61144e81611a10565b50565b60007f01ffc9a7000000000000000000000000000000000000000000000000000000007bffffffffffffffffffffffffffffffffffffffffffffffffffffffff1916827bffffffffffffffffffffffffffffffffffffffffffffffffffffffff1916149050919050565b6114c481611da8565b611503576040517f08c379a00000000000000000000000000000000000000000000000000000000081526004016114fa906130e9565b60405180910390fd5b50565b600033905090565b816004600083815260200190815260200160002060006101000a81548173ffffffffffffffffffffffffffffffffffffffff021916908373ffffffffffffffffffffffffffffffffffffffff160217905550808273ffffffffffffffffffffffffffffffffffffffff1661158183610b25565b73ffffffffffffffffffffffffffffffffffffffff167f8c5be1e5ebec7d5bd14f71427d1e84f3dd0314c0f7b2291e5b200ac8c7c3b92560405160405180910390a45050565b6115cf611506565b73ffffffffffffffffffffffffffffffffffffffff166115ed610c7c565b73ffffffffffffffffffffffffffffffffffffffff1614611643576040517f08c379a000000000000000000000000000000000000000000000000000000000815260040161163a90613538565b60405180910390fd5b565b60008061165183610b25565b90508073ffffffffffffffffffffffffffffffffffffffff168473ffffffffffffffffffffffffffffffffffffffff1614806116935750611692818561133a565b5b806116d157508373ffffffffffffffffffffffffffffffffffffffff166116b984610843565b73ffffffffffffffffffffffffffffffffffffffff16145b91505092915050565b8273ffffffffffffffffffffffffffffffffffffffff166116fa82610b25565b73ffffffffffffffffffffffffffffffffffffffff1614611750576040517f08c379a0000000000000000000000000000000000000000000000000000000008152600401611747906135ca565b60405180910390fd5b600073ffffffffffffffffffffffffffffffffffffffff168273ffffffffffffffffffffffffffffffffffffffff16036117bf576040517f08c379a00000000000000000000000000000000000000000000000000000000081526004016117b69061365c565b60405180910390fd5b6117cc8383836001611de9565b8273ffffffffffffffffffffffffffffffffffffffff166117ec82610b25565b73ffffffffffffffffffffffffffffffffffffffff1614611842576040517f08c379a0000000000000000000000000000000000000000000000000000000008152600401611839906135ca565b60405180910390fd5b6004600082815260200190815260200160002060006101000a81549073ffffffffffffffffffffffffffffffffffffffff02191690556001600360008573ffffffffffffffffffffffffffffffffffffffff1673ffffffffffffffffffffffffffffffffffffffff168152602001908152602001600020600082825403925050819055506001600360008473ffffffffffffffffffffffffffffffffffffffff1673ffffffffffffffffffffffffffffffffffffffff16815260200190815260200160002060008282540192505081905550816002600083815260200190815260200160002060006101000a81548173ffffffffffffffffffffffffffffffffffffffff021916908373ffffffffffffffffffffffffffffffffffffffff160217905550808273ffffffffffffffffffffffffffffffffffffffff168473ffffffffffffffffffffffffffffffffffffffff167fddf252ad1be2c89b69c2b068fc378daa952ba7f163c4a11628f55a4df523b3ef60405160405180910390a46119ce8383836001611def565b505050565b60006002600083815260200190815260200160002060009054906101000a900473ffffffffffffffffffffffffffffffffffffffff169050919050565b6000600760009054906101000a900473ffffffffffffffffffffffffffffffffffffffff16905081600760006101000a81548173ffffffffffffffffffffffffffffffffffffffff021916908373ffffffffffffffffffffffffffffffffffffffff1602179055508173ffffffffffffffffffffffffffffffffffffffff168173ffffffffffffffffffffffffffffffffffffffff167f8be0079c531659141344cd1fd0a4f28419497f9722a3daafe3b4186f6b6457e060405160405180910390a35050565b8173ffffffffffffffffffffffffffffffffffffffff168373ffffffffffffffffffffffffffffffffffffffff1603611b44576040517f08c379a0000000000000000000000000000000000000000000000000000000008152600401611b3b906136c8565b60405180910390fd5b80600560008573ffffffffffffffffffffffffffffffffffffffff1673ffffffffffffffffffffffffffffffffffffffff16815260200190815260200160002060008473ffffffffffffffffffffffffffffffffffffffff1673ffffffffffffffffffffffffffffffffffffffff16815260200190815260200160002060006101000a81548160ff0219169083151502179055508173ffffffffffffffffffffffffffffffffffffffff168373ffffffffffffffffffffffffffffffffffffffff167f17307eab39ab6107e8899845ad3d59bd9653f200f220920489ca2b5937696c3183604051611c3591906124ec565b60405180910390a3505050565b611c4d8484846116da565b611c5984848484611df5565b611c98576040517f08c379a0000000000000000000000000000000000000000000000000000000008152600401611c8f9061375a565b60405180910390fd5b50505050565b606060405180602001604052806000815250905090565b6060611cc0826114bb565b6000611cca611c9e565b90506000815111611cea5760405180602001604052806000815250611d15565b80611cf484611f7c565b604051602001611d05929190613243565b6040516020818303038152906040525b915050919050565b611d3782826040518060200160405280600081525061204a565b5050565b611d4482611da8565b611d83576040517f08c379a0000000000000000000000000000000000000000000000000000000008152600401611d7a906137ec565b60405180910390fd5b80600660008481526020019081526020016000209081611da391906139ae565b505050565b60008073ffffffffffffffffffffffffffffffffffffffff16611dca836119d3565b73ffffffffffffffffffffffffffffffffffffffff1614159050919050565b50505050565b50505050565b6000611e168473ffffffffffffffffffffffffffffffffffffffff166120a5565b15611f6f578373ffffffffffffffffffffffffffffffffffffffff1663150b7a02611e3f611506565b8786866040518563ffffffff1660e01b8152600401611e619493929190613ad5565b6020604051808303816000875af1925050508015611e9d57506040513d601f19601f82011682018060405250810190611e9a9190613b36565b60015b611f1f573d8060008114611ecd576040519150601f19603f3d011682016040523d82523d6000602084013e611ed2565b606091505b506000815103611f17576040517f08c379a0000000000000000000000000000000000000000000000000000000008152600401611f0e9061375a565b60405180910390fd5b805181602001fd5b63150b7a0260e01b7bffffffffffffffffffffffffffffffffffffffffffffffffffffffff1916817bffffffffffffffffffffffffffffffffffffffffffffffffffffffff191614915050611f74565b600190505b949350505050565b606060006001611f8b846120c8565b01905060008167ffffffffffffffff811115611faa57611fa9612924565b5b6040519080825280601f01601f191660200182016040528015611fdc5781602001600182028036833780820191505090505b509050600082602001820190505b60011561203f578080600190039150507f3031323334353637383961626364656600000000000000000000000000000000600a86061a8153600a858161203357612032613381565b5b04945060008503611fea575b819350505050919050565b612054838361221b565b6120616000848484611df5565b6120a0576040517f08c379a00000000000000000000000000000000000000000000000000000000081526004016120979061375a565b60405180910390fd5b505050565b6000808273ffffffffffffffffffffffffffffffffffffffff163b119050919050565b600080600090507a184f03e93ff9f4daa797ed6e38ed64bf6a1f0100000000000000008310612126577a184f03e93ff9f4daa797ed6e38ed64bf6a1f010000000000000000838161211c5761211b613381565b5b0492506040810190505b6d04ee2d6d415b85acef81000000008310612163576d04ee2d6d415b85acef8100000000838161215957612158613381565b5b0492506020810190505b662386f26fc10000831061219257662386f26fc10000838161218857612187613381565b5b0492506010810190505b6305f5e10083106121bb576305f5e10083816121b1576121b0613381565b5b0492506008810190505b61271083106121e05761271083816121d6576121d5613381565b5b0492506004810190505b6064831061220357606483816121f9576121f8613381565b5b0492506002810190505b600a8310612212576001810190505b80915050919050565b600073ffffffffffffffffffffffffffffffffffffffff168273ffffffffffffffffffffffffffffffffffffffff160361228a576040517f08c379a000000000000000000000000000000000000000000000000000000000815260040161228190613baf565b60405180910390fd5b61229381611da8565b156122d3576040517f08c379a00000000000000000000000000000000000000000000000000000000081526004016122ca90613c1b565b60405180910390fd5b6122e1600083836001611de9565b6122ea81611da8565b1561232a576040517f08c379a000000000000000000000000000000000000000000000000000000000815260040161232190613c1b565b60405180910390fd5b6001600360008473ffffffffffffffffffffffffffffffffffffffff1673ffffffffffffffffffffffffffffffffffffffff16815260200190815260200160002060008282540192505081905550816002600083815260200190815260200160002060006101000a81548173ffffffffffffffffffffffffffffffffffffffff021916908373ffffffffffffffffffffffffffffffffffffffff160217905550808273ffffffffffffffffffffffffffffffffffffffff16600073ffffffffffffffffffffffffffffffffffffffff167fddf252ad1be2c89b69c2b068fc378daa952ba7f163c4a11628f55a4df523b3ef60405160405180910390a4612434600083836001611def565b5050565b6000604051905090565b600080fd5b600080fd5b60007fffffffff0000000000000000000000000000000000000000000000000000000082169050919050565b6124818161244c565b811461248c57600080fd5b50565b60008135905061249e81612478565b92915050565b6000602082840312156124ba576124b9612442565b5b60006124c88482850161248f565b91505092915050565b60008115159050919050565b6124e6816124d1565b82525050565b600060208201905061250160008301846124dd565b92915050565b600081519050919050565b600082825260208201905092915050565b6000819050602082019050919050565b6000819050919050565b61254681612533565b82525050565b6000612558838361253d565b60208301905092915050565b6000602082019050919050565b600061257c82612507565b6125868185612512565b935061259183612523565b8060005b838110156125c25781516125a9888261254c565b97506125b483612564565b925050600181019050612595565b5085935050505092915050565b600060208201905081810360008301526125e98184612571565b905092915050565b600081519050919050565b600082825260208201905092915050565b60005b8381101561262b578082015181840152602081019050612610565b60008484015250505050565b6000601f19601f8301169050919050565b6000612653826125f1565b61265d81856125fc565b935061266d81856020860161260d565b61267681612637565b840191505092915050565b6000602082019050818103600083015261269b8184612648565b905092915050565b6126ac81612533565b81146126b757600080fd5b50565b6000813590506126c9816126a3565b92915050565b6000602082840312156126e5576126e4612442565b5b60006126f3848285016126ba565b91505092915050565b600073ffffffffffffffffffffffffffffffffffffffff82169050919050565b6000612727826126fc565b9050919050565b6127378161271c565b82525050565b6000602082019050612752600083018461272e565b92915050565b6127618161271c565b811461276c57600080fd5b50565b60008135905061277e81612758565b92915050565b6000806040838503121561279b5761279a612442565b5b60006127a98582860161276f565b92505060206127ba858286016126ba565b9150509250929050565b6000806000606084860312156127dd576127dc612442565b5b60006127eb8682870161276f565b93505060206127fc8682870161276f565b925050604061280d868287016126ba565b9150509250925092565b6000806040838503121561282e5761282d612442565b5b600061283c858286016126ba565b925050602061284d858286016126ba565b9150509250929050565b61286081612533565b82525050565b600060208201905061287b6000830184612857565b92915050565b60006020828403121561289757612896612442565b5b60006128a58482850161276f565b91505092915050565b6128b7816124d1565b81146128c257600080fd5b50565b6000813590506128d4816128ae565b92915050565b600080604083850312156128f1576128f0612442565b5b60006128ff8582860161276f565b9250506020612910858286016128c5565b9150509250929050565b600080fd5b600080fd5b7f4e487b7100000000000000000000000000000000000000000000000000000000600052604160045260246000fd5b61295c82612637565b810181811067ffffffffffffffff8211171561297b5761297a612924565b5b80604052505050565b600061298e612438565b905061299a8282612953565b919050565b600067ffffffffffffffff8211156129ba576129b9612924565b5b6129c382612637565b9050602081019050919050565b82818337600083830152505050565b60006129f26129ed8461299f565b612984565b905082815260208101848484011115612a0e57612a0d61291f565b5b612a198482856129d0565b509392505050565b600082601f830112612a3657612a3561291a565b5b8135612a468482602086016129df565b91505092915050565b60008060008060808587031215612a6957612a68612442565b5b6000612a778782880161276f565b9450506020612a888782880161276f565b9350506040612a99878288016126ba565b925050606085013567ffffffffffffffff811115612aba57612ab9612447565b5b612ac687828801612a21565b91505092959194509250565b6000819050919050565b6000612af7612af2612aed846126fc565b612ad2565b6126fc565b9050919050565b6000612b0982612adc565b9050919050565b6000612b1b82612afe565b9050919050565b612b2b81612b10565b82525050565b6000602082019050612b466000830184612b22565b92915050565b600067ffffffffffffffff821115612b6757612b66612924565b5b612b7082612637565b9050602081019050919050565b6000612b90612b8b84612b4c565b612984565b905082815260208101848484011115612bac57612bab61291f565b5b612bb78482856129d0565b509392505050565b600082601f830112612bd457612bd361291a565b5b8135612be4848260208601612b7d565b91505092915050565b60008060408385031215612c0457612c03612442565b5b6000612c128582860161276f565b925050602083013567ffffffffffffffff811115612c3357612c32612447565b5b612c3f85828601612bbf565b9150509250929050565b60008060408385031215612c6057612c5f612442565b5b6000612c6e8582860161276f565b9250506020612c7f8582860161276f565b9150509250929050565b7f4e487b7100000000000000000000000000000000000000000000000000000000600052601160045260246000fd5b6000612cc382612533565b9150612cce83612533565b9250828203905081811115612ce657612ce5612c89565b5b92915050565b7f4e487b7100000000000000000000000000000000000000000000000000000000600052603260045260246000fd5b6000612d2682612533565b91507fffffffffffffffffffffffffffffffffffffffffffffffffffffffffffffffff8203612d5857612d57612c89565b5b600182019050919050565b7f4e487b7100000000000000000000000000000000000000000000000000000000600052602260045260246000fd5b60006002820490506001821680612daa57607f821691505b602082108103612dbd57612dbc612d63565b5b50919050565b7f4552433732313a20617070726f76616c20746f2063757272656e74206f776e6560008201527f7200000000000000000000000000000000000000000000000000000000000000602082015250565b6000612e1f6021836125fc565b9150612e2a82612dc3565b604082019050919050565b60006020820190508181036000830152612e4e81612e12565b9050919050565b7f4552433732313a20617070726f76652063616c6c6572206973206e6f7420746f60008201527f6b656e206f776e6572206f7220617070726f76656420666f7220616c6c000000602082015250565b6000612eb1603d836125fc565b9150612ebc82612e55565b604082019050919050565b60006020820190508181036000830152612ee081612ea4565b9050919050565b7f5472616e73616374696f6e20666565206d757374206265206c6573732074686160008201527f6e206f7220657175616c20746f20313025000000000000000000000000000000602082015250565b6000612f436031836125fc565b9150612f4e82612ee7565b604082019050919050565b60006020820190508181036000830152612f7281612f36565b9050919050565b7f4552433732313a2063616c6c6572206973206e6f7420746f6b656e206f776e6560008201527f72206f7220617070726f76656400000000000000000000000000000000000000602082015250565b6000612fd5602d836125fc565b9150612fe082612f79565b604082019050919050565b6000602082019050818103600083015261300481612fc8565b9050919050565b7f596f7520617265206e6f7420746865206f776e6572206f66207468652069746560008201527f6d00000000000000000000000000000000000000000000000000000000000000602082015250565b60006130676021836125fc565b91506130728261300b565b604082019050919050565b600060208201905081810360008301526130968161305a565b9050919050565b7f4552433732313a20696e76616c696420746f6b656e2049440000000000000000600082015250565b60006130d36018836125fc565b91506130de8261309d565b602082019050919050565b60006020820190508181036000830152613102816130c6565b9050919050565b7f4552433732313a2061646472657373207a65726f206973206e6f74206120766160008201527f6c6964206f776e65720000000000000000000000000000000000000000000000602082015250565b60006131656029836125fc565b915061317082613109565b604082019050919050565b6000602082019050818103600083015261319481613158565b9050919050565b7f5072696365206d7573742062652067726561746572207468616e207a65726f00600082015250565b60006131d1601f836125fc565b91506131dc8261319b565b602082019050919050565b60006020820190508181036000830152613200816131c4565b9050919050565b600081905092915050565b600061321d826125f1565b6132278185613207565b935061323781856020860161260d565b80840191505092915050565b600061324f8285613212565b915061325b8284613212565b91508190509392505050565b7f4974656d206973206e6f7420666f722073616c65000000000000000000000000600082015250565b600061329d6014836125fc565b91506132a882613267565b602082019050919050565b600060208201905081810360008301526132cc81613290565b9050919050565b7f596f752063616e6e6f742062757920796f7572206f776e206974656d00000000600082015250565b6000613309601c836125fc565b9150613314826132d3565b602082019050919050565b60006020820190508181036000830152613338816132fc565b9050919050565b600061334a82612533565b915061335583612533565b925082820261336381612533565b9150828204841483151761337a57613379612c89565b5b5092915050565b7f4e487b7100000000000000000000000000000000000000000000000000000000600052601260045260246000fd5b60006133bb82612533565b91506133c683612533565b9250826133d6576133d5613381565b5b828204905092915050565b60006060820190506133f6600083018661272e565b613403602083018561272e565b6134106040830184612857565b949350505050565b600081519050613427816128ae565b92915050565b60006020828403121561344357613442612442565b5b600061345184828501613418565b91505092915050565b7f4f776e61626c653a206e6577206f776e657220697320746865207a65726f206160008201527f6464726573730000000000000000000000000000000000000000000000000000602082015250565b60006134b66026836125fc565b91506134c18261345a565b604082019050919050565b600060208201905081810360008301526134e5816134a9565b9050919050565b7f4f776e61626c653a2063616c6c6572206973206e6f7420746865206f776e6572600082015250565b60006135226020836125fc565b915061352d826134ec565b602082019050919050565b6000602082019050818103600083015261355181613515565b9050919050565b7f4552433732313a207472616e736665722066726f6d20696e636f72726563742060008201527f6f776e6572000000000000000000000000000000000000000000000000000000602082015250565b60006135b46025836125fc565b91506135bf82613558565b604082019050919050565b600060208201905081810360008301526135e3816135a7565b9050919050565b7f4552433732313a207472616e7366657220746f20746865207a65726f2061646460008201527f7265737300000000000000000000000000000000000000000000000000000000602082015250565b60006136466024836125fc565b9150613651826135ea565b604082019050919050565b6000602082019050818103600083015261367581613639565b9050919050565b7f4552433732313a20617070726f766520746f2063616c6c657200000000000000600082015250565b60006136b26019836125fc565b91506136bd8261367c565b602082019050919050565b600060208201905081810360008301526136e1816136a5565b9050919050565b7f4552433732313a207472616e7366657220746f206e6f6e20455243373231526560008201527f63656976657220696d706c656d656e7465720000000000000000000000000000602082015250565b60006137446032836125fc565b915061374f826136e8565b604082019050919050565b6000602082019050818103600083015261377381613737565b9050919050565b7f45524337323155524953746f726167653a2055524920736574206f66206e6f6e60008201527f6578697374656e7420746f6b656e000000000000000000000000000000000000602082015250565b60006137d6602e836125fc565b91506137e18261377a565b604082019050919050565b60006020820190508181036000830152613805816137c9565b9050919050565b60008190508160005260206000209050919050565b60006020601f8301049050919050565b600082821b905092915050565b60006008830261386e7fffffffffffffffffffffffffffffffffffffffffffffffffffffffffffffffff82613831565b6138788683613831565b95508019841693508086168417925050509392505050565b60006138ab6138a66138a184612533565b612ad2565b612533565b9050919050565b6000819050919050565b6138c583613890565b6138d96138d1826138b2565b84845461383e565b825550505050565b600090565b6138ee6138e1565b6138f98184846138bc565b505050565b5b8181101561391d576139126000826138e6565b6001810190506138ff565b5050565b601f821115613962576139338161380c565b61393c84613821565b8101602085101561394b578190505b61395f61395785613821565b8301826138fe565b50505b505050565b600082821c905092915050565b600061398560001984600802613967565b1980831691505092915050565b600061399e8383613974565b9150826002028217905092915050565b6139b7826125f1565b67ffffffffffffffff8111156139d0576139cf612924565b5b6139da8254612d92565b6139e5828285613921565b600060209050601f831160018114613a185760008415613a06578287015190505b613a108582613992565b865550613a78565b601f198416613a268661380c565b60005b82811015613a4e57848901518255600182019150602085019450602081019050613a29565b86831015613a6b5784890151613a67601f891682613974565b8355505b6001600288020188555050505b505050505050565b600081519050919050565b600082825260208201905092915050565b6000613aa782613a80565b613ab18185613a8b565b9350613ac181856020860161260d565b613aca81612637565b840191505092915050565b6000608082019050613aea600083018761272e565b613af7602083018661272e565b613b046040830185612857565b8181036060830152613b168184613a9c565b905095945050505050565b600081519050613b3081612478565b92915050565b600060208284031215613b4c57613b4b612442565b5b6000613b5a84828501613b21565b91505092915050565b7f4552433732313a206d696e7420746f20746865207a65726f2061646472657373600082015250565b6000613b996020836125fc565b9150613ba482613b63565b602082019050919050565b60006020820190508181036000830152613bc881613b8c565b9050919050565b7f4552433732313a20746f6b656e20616c7265616479206d696e74656400000000600082015250565b6000613c05601c836125fc565b9150613c1082613bcf565b602082019050919050565b60006020820190508181036000830152613c3481613bf8565b905091905056fea26469706673582212204b5bc287677122e6ee38df83a5a5e02098fe8d4c1a3b499049dbc406078cb2ab64736f6c63430008130033",
  "immutableReferences": {},
  "source": "//SPDX-License-Identifier: UNLICENSED\npragma solidity ^0.8.0;\n\nimport \"@openzeppelin/contracts/token/ERC721/extensions/ERC721URIStorage.sol\";\nimport \"@openzeppelin/contracts/access/Ownable.sol\";\nimport \"@openzeppelin/contracts/token/ERC20/IERC20.sol\";\n\ncontract ART is ERC721URIStorage, Ownable {\n    uint256 public nextTokenId = 1;\n    IERC20 public artToken;\n    uint256 public transactionFee = 2; // 2% transaction fee\n\n    mapping(uint256 => uint256) public tokenPrices;\n\n    event TokenListed(uint256 indexed tokenId, uint256 price);\n    event TokenSold(uint256 indexed tokenId, uint256 price, address indexed seller, address indexed buyer);\n\n    constructor(string memory name, string memory symbol) ERC721(name, symbol) {\n        artToken = IERC20(msg.sender);\n        \n    }\n\n    // mint function to mint a unique item\n    // generates unique tokenId's for each item and returns the tokenId\n    function mint(address to, string memory tokenURI) external returns (uint256) {\n        uint256 tokenId = nextTokenId;\n        _safeMint(to, tokenId);\n        _setTokenURI(tokenId, tokenURI);\n        nextTokenId++;\n        return tokenId;\n    }\n\n    // listItemForSale function list a list for sale\n    // Only an onwer of an item can list it for sale\n    function listItemForSale(uint256 tokenId, uint256 price) external {\n        require(ownerOf(tokenId) == msg.sender, \"You are not the owner of the item\");\n        require(price > 0, \"Price must be greater than zero\");\n        tokenPrices[tokenId] = price;\n        emit TokenListed(tokenId, price);\n    }\n\n    // buyItem function lets you buy an item from the market/gallery\n    function buyItem(uint256 tokenId) external {\n        uint256 price = tokenPrices[tokenId];\n        require(price > 0, \"Item is not for sale\");\n        address seller = ownerOf(tokenId);\n        require(seller != msg.sender, \"You cannot buy your own item\");\n        artToken.transferFrom(msg.sender, address(this), price * transactionFee / 100); // Take transaction fee\n        artToken.transferFrom(msg.sender, seller, price * (100 - transactionFee) / 100); // Send payment to seller\n        _transfer(seller, msg.sender, tokenId);\n        tokenPrices[tokenId] = 0;\n        emit TokenSold(tokenId, price, seller, msg.sender);\n    }\n\n    // setTransactionFee function allows the onwer of the item to set the transaction fee\n    function setTransactionFee(uint256 _transactionFee) external onlyOwner {\n        require(_transactionFee <= 10, \"Transaction fee must be less than or equal to 10%\");\n        transactionFee = _transactionFee;\n    }\n\n    // setItemPrice function lets you set price value for a particular item\n    function setItemPrice(uint256 tokenId, uint256 price) external {\n        require(ownerOf(tokenId) == msg.sender, \"You are not the owner of the item\");\n        tokenPrices[tokenId] = price;\n    }\n\n    // getItemPrice function fetches the price value of a product\n    function getItemPrice(uint256 tokenId) external view returns (uint256) {\n        return tokenPrices[tokenId];\n    }\n\n    // getAllItemsForSale function lists all the items available for sale\n    // lists all the tokenId's available for sale\n    function getAllItemsForSale() external view returns (uint256[] memory) {\n        uint256[] memory tokenIds = new uint256[](nextTokenId - 1);\n        uint256 count = 0;\n        for (uint256 i = 1; i < nextTokenId; i++) {\n            if (tokenPrices[i] > 0) {\n                tokenIds[count] = i;\n                count++;\n            }\n        }\n        uint256[] memory result = new uint256[](count);\n        for (uint256 i = 0; i < count; i++) {\n            result[i] = tokenIds[i];\n        }\n        return result;\n    }\n\n}",
  "sourcePath": "/Users/anu/Documents/CSE 526 Blockchain/Project/contracts/ART.sol",
  "compiler": {
    "name": "solc",
    "version": "0.8.19+commit.7dd6d404.Emscripten.clang"
  },
  "schemaVersion": "3.4.13",
  "updatedAt": "2023-04-26T18:36:37.446Z",
  "networkType": "ethereum",
  "devdoc": {
    "events": {
      "Approval(address,address,uint256)": {
        "details": "Emitted when `owner` enables `approved` to manage the `tokenId` token."
      },
      "ApprovalForAll(address,address,bool)": {
        "details": "Emitted when `owner` enables or disables (`approved`) `operator` to manage all of its assets."
      },
      "Transfer(address,address,uint256)": {
        "details": "Emitted when `tokenId` token is transferred from `from` to `to`."
      }
    },
    "kind": "dev",
    "methods": {
      "approve(address,uint256)": {
        "details": "See {IERC721-approve}."
      },
      "balanceOf(address)": {
        "details": "See {IERC721-balanceOf}."
      },
      "getApproved(uint256)": {
        "details": "See {IERC721-getApproved}."
      },
      "isApprovedForAll(address,address)": {
        "details": "See {IERC721-isApprovedForAll}."
      },
      "name()": {
        "details": "See {IERC721Metadata-name}."
      },
      "owner()": {
        "details": "Returns the address of the current owner."
      },
      "ownerOf(uint256)": {
        "details": "See {IERC721-ownerOf}."
      },
      "renounceOwnership()": {
        "details": "Leaves the contract without owner. It will not be possible to call `onlyOwner` functions anymore. Can only be called by the current owner. NOTE: Renouncing ownership will leave the contract without an owner, thereby removing any functionality that is only available to the owner."
      },
      "safeTransferFrom(address,address,uint256)": {
        "details": "See {IERC721-safeTransferFrom}."
      },
      "safeTransferFrom(address,address,uint256,bytes)": {
        "details": "See {IERC721-safeTransferFrom}."
      },
      "setApprovalForAll(address,bool)": {
        "details": "See {IERC721-setApprovalForAll}."
      },
      "supportsInterface(bytes4)": {
        "details": "See {IERC165-supportsInterface}."
      },
      "symbol()": {
        "details": "See {IERC721Metadata-symbol}."
      },
      "tokenURI(uint256)": {
        "details": "See {IERC721Metadata-tokenURI}."
      },
      "transferFrom(address,address,uint256)": {
        "details": "See {IERC721-transferFrom}."
      },
      "transferOwnership(address)": {
        "details": "Transfers ownership of the contract to a new account (`newOwner`). Can only be called by the current owner."
      }
    },
    "version": 1
  },
  "userdoc": {
    "kind": "user",
    "methods": {},
    "version": 1
  }
}